{
  "_format": "hh-sol-artifact-1",
  "contractName": "NFTMarketplace",
  "sourceName": "contracts/NFTMarketplace.sol",
  "abi": [
    {
      "inputs": [],
      "stateMutability": "nonpayable",
      "type": "constructor"
    },
    {
      "anonymous": false,
      "inputs": [
        {
          "indexed": true,
          "internalType": "address",
          "name": "owner",
          "type": "address"
        },
        {
          "indexed": true,
          "internalType": "address",
          "name": "approved",
          "type": "address"
        },
        {
          "indexed": true,
          "internalType": "uint256",
          "name": "tokenId",
          "type": "uint256"
        }
      ],
      "name": "Approval",
      "type": "event"
    },
    {
      "anonymous": false,
      "inputs": [
        {
          "indexed": true,
          "internalType": "address",
          "name": "owner",
          "type": "address"
        },
        {
          "indexed": true,
          "internalType": "address",
          "name": "operator",
          "type": "address"
        },
        {
          "indexed": false,
          "internalType": "bool",
          "name": "approved",
          "type": "bool"
        }
      ],
      "name": "ApprovalForAll",
      "type": "event"
    },
    {
      "anonymous": false,
      "inputs": [
        {
          "indexed": true,
          "internalType": "uint256",
          "name": "tokenId",
          "type": "uint256"
        },
        {
          "indexed": false,
          "internalType": "address",
          "name": "seller",
          "type": "address"
        },
        {
          "indexed": false,
          "internalType": "address",
          "name": "owner",
          "type": "address"
        },
        {
          "indexed": false,
          "internalType": "uint256",
          "name": "price",
          "type": "uint256"
        },
        {
          "indexed": false,
          "internalType": "bool",
          "name": "sold",
          "type": "bool"
        }
      ],
      "name": "MarketItemCreated",
      "type": "event"
    },
    {
      "anonymous": false,
      "inputs": [
        {
          "indexed": true,
          "internalType": "address",
          "name": "from",
          "type": "address"
        },
        {
          "indexed": true,
          "internalType": "address",
          "name": "to",
          "type": "address"
        },
        {
          "indexed": true,
          "internalType": "uint256",
          "name": "tokenId",
          "type": "uint256"
        }
      ],
      "name": "Transfer",
      "type": "event"
    },
    {
      "inputs": [
        {
          "internalType": "address",
          "name": "to",
          "type": "address"
        },
        {
          "internalType": "uint256",
          "name": "tokenId",
          "type": "uint256"
        }
      ],
      "name": "approve",
      "outputs": [],
      "stateMutability": "nonpayable",
      "type": "function"
    },
    {
      "inputs": [
        {
          "internalType": "address",
          "name": "owner",
          "type": "address"
        }
      ],
      "name": "balanceOf",
      "outputs": [
        {
          "internalType": "uint256",
          "name": "",
          "type": "uint256"
        }
      ],
      "stateMutability": "view",
      "type": "function"
    },
    {
      "inputs": [
        {
          "internalType": "uint256",
          "name": "tokenId",
          "type": "uint256"
        }
      ],
      "name": "createMarketSale",
      "outputs": [],
      "stateMutability": "payable",
      "type": "function"
    },
    {
      "inputs": [
        {
          "internalType": "string",
          "name": "tokenURI",
          "type": "string"
        },
        {
          "internalType": "uint256",
          "name": "price",
          "type": "uint256"
        }
      ],
      "name": "createToken",
      "outputs": [
        {
          "internalType": "uint256",
          "name": "",
          "type": "uint256"
        }
      ],
      "stateMutability": "payable",
      "type": "function"
    },
    {
      "inputs": [],
      "name": "fetchIthemsListed",
      "outputs": [
        {
          "components": [
            {
              "internalType": "uint256",
              "name": "tokenId",
              "type": "uint256"
            },
            {
              "internalType": "address payable",
              "name": "seller",
              "type": "address"
            },
            {
              "internalType": "address payable",
              "name": "owner",
              "type": "address"
            },
            {
              "internalType": "uint256",
              "name": "price",
              "type": "uint256"
            },
            {
              "internalType": "bool",
              "name": "sold",
              "type": "bool"
            }
          ],
          "internalType": "struct NFTMarketplace.MarketItem[]",
          "name": "",
          "type": "tuple[]"
        }
      ],
      "stateMutability": "view",
      "type": "function"
    },
    {
      "inputs": [],
      "name": "fetchMarketItems",
      "outputs": [
        {
          "components": [
            {
              "internalType": "uint256",
              "name": "tokenId",
              "type": "uint256"
            },
            {
              "internalType": "address payable",
              "name": "seller",
              "type": "address"
            },
            {
              "internalType": "address payable",
              "name": "owner",
              "type": "address"
            },
            {
              "internalType": "uint256",
              "name": "price",
              "type": "uint256"
            },
            {
              "internalType": "bool",
              "name": "sold",
              "type": "bool"
            }
          ],
          "internalType": "struct NFTMarketplace.MarketItem[]",
          "name": "",
          "type": "tuple[]"
        }
      ],
      "stateMutability": "view",
      "type": "function"
    },
    {
      "inputs": [],
      "name": "fetchMyNFTs",
      "outputs": [
        {
          "components": [
            {
              "internalType": "uint256",
              "name": "tokenId",
              "type": "uint256"
            },
            {
              "internalType": "address payable",
              "name": "seller",
              "type": "address"
            },
            {
              "internalType": "address payable",
              "name": "owner",
              "type": "address"
            },
            {
              "internalType": "uint256",
              "name": "price",
              "type": "uint256"
            },
            {
              "internalType": "bool",
              "name": "sold",
              "type": "bool"
            }
          ],
          "internalType": "struct NFTMarketplace.MarketItem[]",
          "name": "",
          "type": "tuple[]"
        }
      ],
      "stateMutability": "view",
      "type": "function"
    },
    {
      "inputs": [
        {
          "internalType": "uint256",
          "name": "tokenId",
          "type": "uint256"
        }
      ],
      "name": "getApproved",
      "outputs": [
        {
          "internalType": "address",
          "name": "",
          "type": "address"
        }
      ],
      "stateMutability": "view",
      "type": "function"
    },
    {
      "inputs": [],
      "name": "getListingPrice",
      "outputs": [
        {
          "internalType": "uint256",
          "name": "",
          "type": "uint256"
        }
      ],
      "stateMutability": "view",
      "type": "function"
    },
    {
      "inputs": [
        {
          "internalType": "address",
          "name": "owner",
          "type": "address"
        },
        {
          "internalType": "address",
          "name": "operator",
          "type": "address"
        }
      ],
      "name": "isApprovedForAll",
      "outputs": [
        {
          "internalType": "bool",
          "name": "",
          "type": "bool"
        }
      ],
      "stateMutability": "view",
      "type": "function"
    },
    {
      "inputs": [],
      "name": "name",
      "outputs": [
        {
          "internalType": "string",
          "name": "",
          "type": "string"
        }
      ],
      "stateMutability": "view",
      "type": "function"
    },
    {
      "inputs": [
        {
          "internalType": "uint256",
          "name": "tokenId",
          "type": "uint256"
        }
      ],
      "name": "ownerOf",
      "outputs": [
        {
          "internalType": "address",
          "name": "",
          "type": "address"
        }
      ],
      "stateMutability": "view",
      "type": "function"
    },
    {
      "inputs": [
        {
          "internalType": "uint256",
          "name": "tokenId",
          "type": "uint256"
        },
        {
          "internalType": "uint256",
          "name": "price",
          "type": "uint256"
        }
      ],
      "name": "resellToken",
      "outputs": [],
      "stateMutability": "payable",
      "type": "function"
    },
    {
      "inputs": [
        {
          "internalType": "address",
          "name": "from",
          "type": "address"
        },
        {
          "internalType": "address",
          "name": "to",
          "type": "address"
        },
        {
          "internalType": "uint256",
          "name": "tokenId",
          "type": "uint256"
        }
      ],
      "name": "safeTransferFrom",
      "outputs": [],
      "stateMutability": "nonpayable",
      "type": "function"
    },
    {
      "inputs": [
        {
          "internalType": "address",
          "name": "from",
          "type": "address"
        },
        {
          "internalType": "address",
          "name": "to",
          "type": "address"
        },
        {
          "internalType": "uint256",
          "name": "tokenId",
          "type": "uint256"
        },
        {
          "internalType": "bytes",
          "name": "data",
          "type": "bytes"
        }
      ],
      "name": "safeTransferFrom",
      "outputs": [],
      "stateMutability": "nonpayable",
      "type": "function"
    },
    {
      "inputs": [
        {
          "internalType": "address",
          "name": "operator",
          "type": "address"
        },
        {
          "internalType": "bool",
          "name": "approved",
          "type": "bool"
        }
      ],
      "name": "setApprovalForAll",
      "outputs": [],
      "stateMutability": "nonpayable",
      "type": "function"
    },
    {
      "inputs": [
        {
          "internalType": "bytes4",
          "name": "interfaceId",
          "type": "bytes4"
        }
      ],
      "name": "supportsInterface",
      "outputs": [
        {
          "internalType": "bool",
          "name": "",
          "type": "bool"
        }
      ],
      "stateMutability": "view",
      "type": "function"
    },
    {
      "inputs": [],
      "name": "symbol",
      "outputs": [
        {
          "internalType": "string",
          "name": "",
          "type": "string"
        }
      ],
      "stateMutability": "view",
      "type": "function"
    },
    {
      "inputs": [
        {
          "internalType": "uint256",
          "name": "tokenId",
          "type": "uint256"
        }
      ],
      "name": "tokenURI",
      "outputs": [
        {
          "internalType": "string",
          "name": "",
          "type": "string"
        }
      ],
      "stateMutability": "view",
      "type": "function"
    },
    {
      "inputs": [
        {
          "internalType": "address",
          "name": "from",
          "type": "address"
        },
        {
          "internalType": "address",
          "name": "to",
          "type": "address"
        },
        {
          "internalType": "uint256",
          "name": "tokenId",
          "type": "uint256"
        }
      ],
      "name": "transferFrom",
      "outputs": [],
      "stateMutability": "nonpayable",
      "type": "function"
    },
    {
      "inputs": [
        {
          "internalType": "uint256",
          "name": "_ListingPrice",
          "type": "uint256"
        }
      ],
      "name": "updateListingPrice",
      "outputs": [],
      "stateMutability": "payable",
      "type": "function"
    }
  ],
  "bytecode": "0x60806040526658d15e176280006009553480156200001c57600080fd5b506040518060400160405280601081526020017f4d657461766572736520546f6b656e73000000000000000000000000000000008152506040518060400160405280600481526020017f4d455454000000000000000000000000000000000000000000000000000000008152508160009080519060200190620000a192919062000104565b508060019080519060200190620000ba92919062000104565b50505033600a60006101000a81548173ffffffffffffffffffffffffffffffffffffffff021916908373ffffffffffffffffffffffffffffffffffffffff16021790555062000219565b8280546200011290620001b4565b90600052602060002090601f01602090048101928262000136576000855562000182565b82601f106200015157805160ff191683800117855562000182565b8280016001018555821562000182579182015b828111156200018157825182559160200191906001019062000164565b5b50905062000191919062000195565b5090565b5b80821115620001b057600081600090555060010162000196565b5090565b60006002820490506001821680620001cd57607f821691505b60208210811415620001e457620001e3620001ea565b5b50919050565b7f4e487b7100000000000000000000000000000000000000000000000000000000600052602260045260246000fd5b61432d80620002296000396000f3fe60806040526004361061012a5760003560e01c80636fe37349116100ab578063ae677aa31161006f578063ae677aa3146103f9578063b88d4fde14610415578063be9af5361461043e578063c87b56dd1461045a578063e219fc7514610497578063e985e9c5146104b35761012a565b80636fe373491461030d57806370a082311461033857806372b3b6201461037557806395d89b41146103a5578063a22cb465146103d05761012a565b806312e85585116100f257806312e8558514610228578063202e37401461025357806323b872dd1461027e57806342842e0e146102a75780636352211e146102d05761012a565b806301ffc9a71461012f57806306fdde031461016c578063081812fc14610197578063095ea7b3146101d45780630f08efe0146101fd575b600080fd5b34801561013b57600080fd5b506101566004803603810190610151919061316c565b6104f0565b60405161016391906137ba565b60405180910390f35b34801561017857600080fd5b506101816105d2565b60405161018e91906137d5565b60405180910390f35b3480156101a357600080fd5b506101be60048036038101906101b99190613212565b610664565b6040516101cb91906136ec565b60405180910390f35b3480156101e057600080fd5b506101fb60048036038101906101f69190613130565b6106aa565b005b34801561020957600080fd5b506102126107c2565b60405161021f9190613798565b60405180910390f35b34801561023457600080fd5b5061023d610a77565b60405161024a9190613a37565b60405180910390f35b34801561025f57600080fd5b50610268610a81565b6040516102759190613798565b60405180910390f35b34801561028a57600080fd5b506102a560048036038101906102a0919061302a565b610db8565b005b3480156102b357600080fd5b506102ce60048036038101906102c9919061302a565b610e18565b005b3480156102dc57600080fd5b506102f760048036038101906102f29190613212565b610e38565b60405161030491906136ec565b60405180910390f35b34801561031957600080fd5b50610322610ebf565b60405161032f9190613798565b60405180910390f35b34801561034457600080fd5b5061035f600480360381019061035a9190612fc5565b6111f9565b60405161036c9190613a37565b60405180910390f35b61038f600480360381019061038a91906131be565b6112b1565b60405161039c9190613a37565b60405180910390f35b3480156103b157600080fd5b506103ba6112f3565b6040516103c791906137d5565b60405180910390f35b3480156103dc57600080fd5b506103f760048036038101906103f291906130f4565b611385565b005b610413600480360381019061040e9190613212565b61139b565b005b34801561042157600080fd5b5061043c60048036038101906104379190613079565b611435565b005b61045860048036038101906104539190613212565b611497565b005b34801561046657600080fd5b50610481600480360381019061047c9190613212565b6116cf565b60405161048e91906137d5565b60405180910390f35b6104b160048036038101906104ac919061323b565b6117e2565b005b3480156104bf57600080fd5b506104da60048036038101906104d59190612fee565b6119d7565b6040516104e791906137ba565b60405180910390f35b60007f80ac58cd000000000000000000000000000000000000000000000000000000007bffffffffffffffffffffffffffffffffffffffffffffffffffffffff1916827bffffffffffffffffffffffffffffffffffffffffffffffffffffffff191614806105bb57507f5b5e139f000000000000000000000000000000000000000000000000000000007bffffffffffffffffffffffffffffffffffffffffffffffffffffffff1916827bffffffffffffffffffffffffffffffffffffffffffffffffffffffff1916145b806105cb57506105ca82611a6b565b5b9050919050565b6060600080546105e190613ca7565b80601f016020809104026020016040519081016040528092919081815260200182805461060d90613ca7565b801561065a5780601f1061062f5761010080835404028352916020019161065a565b820191906000526020600020905b81548152906001019060200180831161063d57829003601f168201915b5050505050905090565b600061066f82611ad5565b6004600083815260200190815260200160002060009054906101000a900473ffffffffffffffffffffffffffffffffffffffff169050919050565b60006106b582610e38565b90508073ffffffffffffffffffffffffffffffffffffffff168373ffffffffffffffffffffffffffffffffffffffff161415610726576040517f08c379a000000000000000000000000000000000000000000000000000000000815260040161071d906139b7565b60405180910390fd5b8073ffffffffffffffffffffffffffffffffffffffff16610745611b20565b73ffffffffffffffffffffffffffffffffffffffff16148061077457506107738161076e611b20565b6119d7565b5b6107b3576040517f08c379a00000000000000000000000000000000000000000000000000000000081526004016107aa906139f7565b60405180910390fd5b6107bd8383611b28565b505050565b606060006107d06007611be1565b905060006107de6008611be1565b6107e86007611be1565b6107f29190613bab565b90506000808267ffffffffffffffff811115610837577f4e487b7100000000000000000000000000000000000000000000000000000000600052604160045260246000fd5b60405190808252806020026020018201604052801561087057816020015b61085d612d8c565b8152602001906001900390816108555790505b50905060005b84811015610a6c573073ffffffffffffffffffffffffffffffffffffffff16600b60006001846108a69190613b55565b815260200190815260200160002060020160009054906101000a900473ffffffffffffffffffffffffffffffffffffffff1673ffffffffffffffffffffffffffffffffffffffff161415610a595760006001826109039190613b55565b90506000600b60008381526020019081526020016000209050806040518060a0016040529081600082015481526020016001820160009054906101000a900473ffffffffffffffffffffffffffffffffffffffff1673ffffffffffffffffffffffffffffffffffffffff1673ffffffffffffffffffffffffffffffffffffffff1681526020016002820160009054906101000a900473ffffffffffffffffffffffffffffffffffffffff1673ffffffffffffffffffffffffffffffffffffffff1673ffffffffffffffffffffffffffffffffffffffff168152602001600382015481526020016004820160009054906101000a900460ff161515151581525050848681518110610a3c577f4e487b7100000000000000000000000000000000000000000000000000000000600052603260045260246000fd5b6020026020010181905250600185610a549190613b55565b945050505b8080610a6490613d0a565b915050610876565b508094505050505090565b6000600954905090565b60606000610a8f6007611be1565b905060008060005b83811015610b38573373ffffffffffffffffffffffffffffffffffffffff16600b6000600184610ac79190613b55565b815260200190815260200160002060020160009054906101000a900473ffffffffffffffffffffffffffffffffffffffff1673ffffffffffffffffffffffffffffffffffffffff161415610b2557600183610b229190613b55565b92505b8080610b3090613d0a565b915050610a97565b5060008267ffffffffffffffff811115610b7b577f4e487b7100000000000000000000000000000000000000000000000000000000600052604160045260246000fd5b604051908082528060200260200182016040528015610bb457816020015b610ba1612d8c565b815260200190600190039081610b995790505b50905060005b84811015610db0573373ffffffffffffffffffffffffffffffffffffffff16600b6000600184610bea9190613b55565b815260200190815260200160002060020160009054906101000a900473ffffffffffffffffffffffffffffffffffffffff1673ffffffffffffffffffffffffffffffffffffffff161415610d9d576000600182610c479190613b55565b90506000600b60008381526020019081526020016000209050806040518060a0016040529081600082015481526020016001820160009054906101000a900473ffffffffffffffffffffffffffffffffffffffff1673ffffffffffffffffffffffffffffffffffffffff1673ffffffffffffffffffffffffffffffffffffffff1681526020016002820160009054906101000a900473ffffffffffffffffffffffffffffffffffffffff1673ffffffffffffffffffffffffffffffffffffffff1673ffffffffffffffffffffffffffffffffffffffff168152602001600382015481526020016004820160009054906101000a900460ff161515151581525050848681518110610d80577f4e487b7100000000000000000000000000000000000000000000000000000000600052603260045260246000fd5b6020026020010181905250600185610d989190613b55565b945050505b8080610da890613d0a565b915050610bba565b505050505090565b610dc9610dc3611b20565b82611bef565b610e08576040517f08c379a0000000000000000000000000000000000000000000000000000000008152600401610dff906137f7565b60405180910390fd5b610e13838383611c84565b505050565b610e3383838360405180602001604052806000815250611435565b505050565b600080610e4483611f7e565b9050600073ffffffffffffffffffffffffffffffffffffffff168173ffffffffffffffffffffffffffffffffffffffff161415610eb6576040517f08c379a0000000000000000000000000000000000000000000000000000000008152600401610ead90613997565b60405180910390fd5b80915050919050565b60606000610ecd6007611be1565b905060008060005b83811015610f76573373ffffffffffffffffffffffffffffffffffffffff16600b6000600184610f059190613b55565b815260200190815260200160002060010160009054906101000a900473ffffffffffffffffffffffffffffffffffffffff1673ffffffffffffffffffffffffffffffffffffffff161415610f6357600183610f609190613b55565b92505b8080610f6e90613d0a565b915050610ed5565b5060008267ffffffffffffffff811115610fb9577f4e487b7100000000000000000000000000000000000000000000000000000000600052604160045260246000fd5b604051908082528060200260200182016040528015610ff257816020015b610fdf612d8c565b815260200190600190039081610fd75790505b50905060005b848110156111ee573373ffffffffffffffffffffffffffffffffffffffff16600b60006001846110289190613b55565b815260200190815260200160002060010160009054906101000a900473ffffffffffffffffffffffffffffffffffffffff1673ffffffffffffffffffffffffffffffffffffffff1614156111db5760006001826110859190613b55565b90506000600b60008381526020019081526020016000209050806040518060a0016040529081600082015481526020016001820160009054906101000a900473ffffffffffffffffffffffffffffffffffffffff1673ffffffffffffffffffffffffffffffffffffffff1673ffffffffffffffffffffffffffffffffffffffff1681526020016002820160009054906101000a900473ffffffffffffffffffffffffffffffffffffffff1673ffffffffffffffffffffffffffffffffffffffff1673ffffffffffffffffffffffffffffffffffffffff168152602001600382015481526020016004820160009054906101000a900460ff1615151515815250508486815181106111be577f4e487b7100000000000000000000000000000000000000000000000000000000600052603260045260246000fd5b60200260200101819052506001856111d69190613b55565b945050505b80806111e690613d0a565b915050610ff8565b508094505050505090565b60008073ffffffffffffffffffffffffffffffffffffffff168273ffffffffffffffffffffffffffffffffffffffff16141561126a576040517f08c379a0000000000000000000000000000000000000000000000000000000008152600401611261906138f7565b60405180910390fd5b600360008373ffffffffffffffffffffffffffffffffffffffff1673ffffffffffffffffffffffffffffffffffffffff168152602001908152602001600020549050919050565b60006112bd6007611fbb565b60006112c96007611be1565b90506112d53382611fd1565b6112df81856121ef565b6112e98184612263565b8091505092915050565b60606001805461130290613ca7565b80601f016020809104026020016040519081016040528092919081815260200182805461132e90613ca7565b801561137b5780601f106113505761010080835404028352916020019161137b565b820191906000526020600020905b81548152906001019060200180831161135e57829003601f168201915b5050505050905090565b611397611390611b20565b8383612466565b5050565b3373ffffffffffffffffffffffffffffffffffffffff16600a60009054906101000a900473ffffffffffffffffffffffffffffffffffffffff1673ffffffffffffffffffffffffffffffffffffffff161461142b576040517f08c379a000000000000000000000000000000000000000000000000000000000815260040161142290613897565b60405180910390fd5b8060098190555050565b611446611440611b20565b83611bef565b611485576040517f08c379a000000000000000000000000000000000000000000000000000000000815260040161147c906137f7565b60405180910390fd5b611491848484846125d3565b50505050565b6000600b60008381526020019081526020016000206003015490508034146114f4576040517f08c379a00000000000000000000000000000000000000000000000000000000081526004016114eb90613937565b60405180910390fd5b33600b600084815260200190815260200160002060020160006101000a81548173ffffffffffffffffffffffffffffffffffffffff021916908373ffffffffffffffffffffffffffffffffffffffff1602179055506001600b600084815260200190815260200160002060040160006101000a81548160ff0219169083151502179055506000600b600084815260200190815260200160002060010160006101000a81548173ffffffffffffffffffffffffffffffffffffffff021916908373ffffffffffffffffffffffffffffffffffffffff1602179055506115d86008611fbb565b6115e3303384611c84565b600a60009054906101000a900473ffffffffffffffffffffffffffffffffffffffff1673ffffffffffffffffffffffffffffffffffffffff166108fc6009549081150290604051600060405180830381858888f1935050505015801561164d573d6000803e3d6000fd5b50600b600083815260200190815260200160002060010160009054906101000a900473ffffffffffffffffffffffffffffffffffffffff1673ffffffffffffffffffffffffffffffffffffffff166108fc349081150290604051600060405180830381858888f193505050501580156116ca573d6000803e3d6000fd5b505050565b60606116da82611ad5565b60006006600084815260200190815260200160002080546116fa90613ca7565b80601f016020809104026020016040519081016040528092919081815260200182805461172690613ca7565b80156117735780601f1061174857610100808354040283529160200191611773565b820191906000526020600020905b81548152906001019060200180831161175657829003601f168201915b50505050509050600061178461262f565b905060008151141561179a5781925050506117dd565b6000825111156117cf5780826040516020016117b79291906136c8565b604051602081830303815290604052925050506117dd565b6117d884612646565b925050505b919050565b3373ffffffffffffffffffffffffffffffffffffffff16600b600084815260200190815260200160002060020160009054906101000a900473ffffffffffffffffffffffffffffffffffffffff1673ffffffffffffffffffffffffffffffffffffffff1614611886576040517f08c379a000000000000000000000000000000000000000000000000000000000815260040161187d90613977565b60405180910390fd5b60095434146118ca576040517f08c379a00000000000000000000000000000000000000000000000000000000081526004016118c1906139d7565b60405180910390fd5b6000600b600084815260200190815260200160002060040160006101000a81548160ff02191690831515021790555080600b60008481526020019081526020016000206003018190555033600b600084815260200190815260200160002060010160006101000a81548173ffffffffffffffffffffffffffffffffffffffff021916908373ffffffffffffffffffffffffffffffffffffffff16021790555030600b600084815260200190815260200160002060020160006101000a81548173ffffffffffffffffffffffffffffffffffffffff021916908373ffffffffffffffffffffffffffffffffffffffff1602179055506119c860086126ae565b6119d3333084611c84565b5050565b6000600560008473ffffffffffffffffffffffffffffffffffffffff1673ffffffffffffffffffffffffffffffffffffffff16815260200190815260200160002060008373ffffffffffffffffffffffffffffffffffffffff1673ffffffffffffffffffffffffffffffffffffffff16815260200190815260200160002060009054906101000a900460ff16905092915050565b60007f01ffc9a7000000000000000000000000000000000000000000000000000000007bffffffffffffffffffffffffffffffffffffffffffffffffffffffff1916827bffffffffffffffffffffffffffffffffffffffffffffffffffffffff1916149050919050565b611ade8161270a565b611b1d576040517f08c379a0000000000000000000000000000000000000000000000000000000008152600401611b1490613997565b60405180910390fd5b50565b600033905090565b816004600083815260200190815260200160002060006101000a81548173ffffffffffffffffffffffffffffffffffffffff021916908373ffffffffffffffffffffffffffffffffffffffff160217905550808273ffffffffffffffffffffffffffffffffffffffff16611b9b83610e38565b73ffffffffffffffffffffffffffffffffffffffff167f8c5be1e5ebec7d5bd14f71427d1e84f3dd0314c0f7b2291e5b200ac8c7c3b92560405160405180910390a45050565b600081600001549050919050565b600080611bfb83610e38565b90508073ffffffffffffffffffffffffffffffffffffffff168473ffffffffffffffffffffffffffffffffffffffff161480611c3d5750611c3c81856119d7565b5b80611c7b57508373ffffffffffffffffffffffffffffffffffffffff16611c6384610664565b73ffffffffffffffffffffffffffffffffffffffff16145b91505092915050565b8273ffffffffffffffffffffffffffffffffffffffff16611ca482610e38565b73ffffffffffffffffffffffffffffffffffffffff1614611cfa576040517f08c379a0000000000000000000000000000000000000000000000000000000008152600401611cf190613857565b60405180910390fd5b600073ffffffffffffffffffffffffffffffffffffffff168273ffffffffffffffffffffffffffffffffffffffff161415611d6a576040517f08c379a0000000000000000000000000000000000000000000000000000000008152600401611d61906138b7565b60405180910390fd5b611d77838383600161274b565b8273ffffffffffffffffffffffffffffffffffffffff16611d9782610e38565b73ffffffffffffffffffffffffffffffffffffffff1614611ded576040517f08c379a0000000000000000000000000000000000000000000000000000000008152600401611de490613857565b60405180910390fd5b6004600082815260200190815260200160002060006101000a81549073ffffffffffffffffffffffffffffffffffffffff02191690556001600360008573ffffffffffffffffffffffffffffffffffffffff1673ffffffffffffffffffffffffffffffffffffffff168152602001908152602001600020600082825403925050819055506001600360008473ffffffffffffffffffffffffffffffffffffffff1673ffffffffffffffffffffffffffffffffffffffff16815260200190815260200160002060008282540192505081905550816002600083815260200190815260200160002060006101000a81548173ffffffffffffffffffffffffffffffffffffffff021916908373ffffffffffffffffffffffffffffffffffffffff160217905550808273ffffffffffffffffffffffffffffffffffffffff168473ffffffffffffffffffffffffffffffffffffffff167fddf252ad1be2c89b69c2b068fc378daa952ba7f163c4a11628f55a4df523b3ef60405160405180910390a4611f798383836001612871565b505050565b60006002600083815260200190815260200160002060009054906101000a900473ffffffffffffffffffffffffffffffffffffffff169050919050565b6001816000016000828254019250508190555050565b600073ffffffffffffffffffffffffffffffffffffffff168273ffffffffffffffffffffffffffffffffffffffff161415612041576040517f08c379a000000000000000000000000000000000000000000000000000000000815260040161203890613957565b60405180910390fd5b61204a8161270a565b1561208a576040517f08c379a000000000000000000000000000000000000000000000000000000000815260040161208190613877565b60405180910390fd5b61209860008383600161274b565b6120a18161270a565b156120e1576040517f08c379a00000000000000000000000000000000000000000000000000000000081526004016120d890613877565b60405180910390fd5b6001600360008473ffffffffffffffffffffffffffffffffffffffff1673ffffffffffffffffffffffffffffffffffffffff16815260200190815260200160002060008282540192505081905550816002600083815260200190815260200160002060006101000a81548173ffffffffffffffffffffffffffffffffffffffff021916908373ffffffffffffffffffffffffffffffffffffffff160217905550808273ffffffffffffffffffffffffffffffffffffffff16600073ffffffffffffffffffffffffffffffffffffffff167fddf252ad1be2c89b69c2b068fc378daa952ba7f163c4a11628f55a4df523b3ef60405160405180910390a46121eb600083836001612871565b5050565b6121f88261270a565b612237576040517f08c379a000000000000000000000000000000000000000000000000000000000815260040161222e90613917565b60405180910390fd5b8060066000848152602001908152602001600020908051906020019061225e929190612de9565b505050565b600081116122a6576040517f08c379a000000000000000000000000000000000000000000000000000000000815260040161229d90613a17565b60405180910390fd5b60095434146122ea576040517f08c379a00000000000000000000000000000000000000000000000000000000081526004016122e1906139d7565b60405180910390fd5b6040518060a001604052808381526020013373ffffffffffffffffffffffffffffffffffffffff1681526020013073ffffffffffffffffffffffffffffffffffffffff16815260200182815260200160001515815250600b60008481526020019081526020016000206000820151816000015560208201518160010160006101000a81548173ffffffffffffffffffffffffffffffffffffffff021916908373ffffffffffffffffffffffffffffffffffffffff16021790555060408201518160020160006101000a81548173ffffffffffffffffffffffffffffffffffffffff021916908373ffffffffffffffffffffffffffffffffffffffff1602179055506060820151816003015560808201518160040160006101000a81548160ff021916908315150217905550905050612423333084611c84565b817fb640004f1d14576d0c209e240cad0410e0d8c0c33a09375861fbadae2588a98d333084600060405161245a9493929190613707565b60405180910390a25050565b8173ffffffffffffffffffffffffffffffffffffffff168373ffffffffffffffffffffffffffffffffffffffff1614156124d5576040517f08c379a00000000000000000000000000000000000000000000000000000000081526004016124cc906138d7565b60405180910390fd5b80600560008573ffffffffffffffffffffffffffffffffffffffff1673ffffffffffffffffffffffffffffffffffffffff16815260200190815260200160002060008473ffffffffffffffffffffffffffffffffffffffff1673ffffffffffffffffffffffffffffffffffffffff16815260200190815260200160002060006101000a81548160ff0219169083151502179055508173ffffffffffffffffffffffffffffffffffffffff168373ffffffffffffffffffffffffffffffffffffffff167f17307eab39ab6107e8899845ad3d59bd9653f200f220920489ca2b5937696c31836040516125c691906137ba565b60405180910390a3505050565b6125de848484611c84565b6125ea84848484612877565b612629576040517f08c379a000000000000000000000000000000000000000000000000000000000815260040161262090613837565b60405180910390fd5b50505050565b606060405180602001604052806000815250905090565b606061265182611ad5565b600061265b61262f565b9050600081511161267b57604051806020016040528060008152506126a6565b8061268584612a0e565b6040516020016126969291906136c8565b6040516020818303038152906040525b915050919050565b600081600001549050600081116126fa576040517f08c379a00000000000000000000000000000000000000000000000000000000081526004016126f190613817565b60405180910390fd5b6001810382600001819055505050565b60008073ffffffffffffffffffffffffffffffffffffffff1661272c83611f7e565b73ffffffffffffffffffffffffffffffffffffffff1614159050919050565b600181111561286b57600073ffffffffffffffffffffffffffffffffffffffff168473ffffffffffffffffffffffffffffffffffffffff16146127df5780600360008673ffffffffffffffffffffffffffffffffffffffff1673ffffffffffffffffffffffffffffffffffffffff16815260200190815260200160002060008282546127d79190613bab565b925050819055505b600073ffffffffffffffffffffffffffffffffffffffff168373ffffffffffffffffffffffffffffffffffffffff161461286a5780600360008573ffffffffffffffffffffffffffffffffffffffff1673ffffffffffffffffffffffffffffffffffffffff16815260200190815260200160002060008282546128629190613b55565b925050819055505b5b50505050565b50505050565b60006128988473ffffffffffffffffffffffffffffffffffffffff16612b32565b15612a01578373ffffffffffffffffffffffffffffffffffffffff1663150b7a026128c1611b20565b8786866040518563ffffffff1660e01b81526004016128e3949392919061374c565b602060405180830381600087803b1580156128fd57600080fd5b505af192505050801561292e57506040513d601f19601f8201168201806040525081019061292b9190613195565b60015b6129b1573d806000811461295e576040519150601f19603f3d011682016040523d82523d6000602084013e612963565b606091505b506000815114156129a9576040517f08c379a00000000000000000000000000000000000000000000000000000000081526004016129a090613837565b60405180910390fd5b805181602001fd5b63150b7a0260e01b7bffffffffffffffffffffffffffffffffffffffffffffffffffffffff1916817bffffffffffffffffffffffffffffffffffffffffffffffffffffffff191614915050612a06565b600190505b949350505050565b606060006001612a1d84612b55565b01905060008167ffffffffffffffff811115612a62577f4e487b7100000000000000000000000000000000000000000000000000000000600052604160045260246000fd5b6040519080825280601f01601f191660200182016040528015612a945781602001600182028036833780820191505090505b509050600082602001820190505b600115612b27578080600190039150507f3031323334353637383961626364656600000000000000000000000000000000600a86061a8153600a8581612b11577f4e487b7100000000000000000000000000000000000000000000000000000000600052601260045260246000fd5b0494506000851415612b2257612b27565b612aa2565b819350505050919050565b6000808273ffffffffffffffffffffffffffffffffffffffff163b119050919050565b600080600090507a184f03e93ff9f4daa797ed6e38ed64bf6a1f0100000000000000008310612bd9577a184f03e93ff9f4daa797ed6e38ed64bf6a1f0100000000000000008381612bcf577f4e487b7100000000000000000000000000000000000000000000000000000000600052601260045260246000fd5b0492506040810190505b6d04ee2d6d415b85acef81000000008310612c3c576d04ee2d6d415b85acef81000000008381612c32577f4e487b7100000000000000000000000000000000000000000000000000000000600052601260045260246000fd5b0492506020810190505b662386f26fc100008310612c9157662386f26fc100008381612c87577f4e487b7100000000000000000000000000000000000000000000000000000000600052601260045260246000fd5b0492506010810190505b6305f5e1008310612ce0576305f5e1008381612cd6577f4e487b7100000000000000000000000000000000000000000000000000000000600052601260045260246000fd5b0492506008810190505b6127108310612d2b576127108381612d21577f4e487b7100000000000000000000000000000000000000000000000000000000600052601260045260246000fd5b0492506004810190505b60648310612d745760648381612d6a577f4e487b7100000000000000000000000000000000000000000000000000000000600052601260045260246000fd5b0492506002810190505b600a8310612d83576001810190505b80915050919050565b6040518060a0016040528060008152602001600073ffffffffffffffffffffffffffffffffffffffff168152602001600073ffffffffffffffffffffffffffffffffffffffff168152602001600081526020016000151581525090565b828054612df590613ca7565b90600052602060002090601f016020900481019282612e175760008555612e5e565b82601f10612e3057805160ff1916838001178555612e5e565b82800160010185558215612e5e579182015b82811115612e5d578251825591602001919060010190612e42565b5b509050612e6b9190612e6f565b5090565b5b80821115612e88576000816000905550600101612e70565b5090565b6000612e9f612e9a84613a77565b613a52565b905082815260208101848484011115612eb757600080fd5b612ec2848285613c65565b509392505050565b6000612edd612ed884613aa8565b613a52565b905082815260208101848484011115612ef557600080fd5b612f00848285613c65565b509392505050565b600081359050612f178161429b565b92915050565b600081359050612f2c816142b2565b92915050565b600081359050612f41816142c9565b92915050565b600081519050612f56816142c9565b92915050565b600082601f830112612f6d57600080fd5b8135612f7d848260208601612e8c565b91505092915050565b600082601f830112612f9757600080fd5b8135612fa7848260208601612eca565b91505092915050565b600081359050612fbf816142e0565b92915050565b600060208284031215612fd757600080fd5b6000612fe584828501612f08565b91505092915050565b6000806040838503121561300157600080fd5b600061300f85828601612f08565b925050602061302085828601612f08565b9150509250929050565b60008060006060848603121561303f57600080fd5b600061304d86828701612f08565b935050602061305e86828701612f08565b925050604061306f86828701612fb0565b9150509250925092565b6000806000806080858703121561308f57600080fd5b600061309d87828801612f08565b94505060206130ae87828801612f08565b93505060406130bf87828801612fb0565b925050606085013567ffffffffffffffff8111156130dc57600080fd5b6130e887828801612f5c565b91505092959194509250565b6000806040838503121561310757600080fd5b600061311585828601612f08565b925050602061312685828601612f1d565b9150509250929050565b6000806040838503121561314357600080fd5b600061315185828601612f08565b925050602061316285828601612fb0565b9150509250929050565b60006020828403121561317e57600080fd5b600061318c84828501612f32565b91505092915050565b6000602082840312156131a757600080fd5b60006131b584828501612f47565b91505092915050565b600080604083850312156131d157600080fd5b600083013567ffffffffffffffff8111156131eb57600080fd5b6131f785828601612f86565b925050602061320885828601612fb0565b9150509250929050565b60006020828403121561322457600080fd5b600061323284828501612fb0565b91505092915050565b6000806040838503121561324e57600080fd5b600061325c85828601612fb0565b925050602061326d85828601612fb0565b9150509250929050565b60006132838383613642565b60a08301905092915050565b61329881613bf1565b82525050565b6132a781613bdf565b82525050565b60006132b882613ae9565b6132c28185613b17565b93506132cd83613ad9565b8060005b838110156132fe5781516132e58882613277565b97506132f083613b0a565b9250506001810190506132d1565b5085935050505092915050565b61331481613c03565b82525050565b61332381613c03565b82525050565b600061333482613af4565b61333e8185613b28565b935061334e818560208601613c74565b61335781613de0565b840191505092915050565b600061336d82613aff565b6133778185613b39565b9350613387818560208601613c74565b61339081613de0565b840191505092915050565b60006133a682613aff565b6133b08185613b4a565b93506133c0818560208601613c74565b80840191505092915050565b60006133d9602d83613b39565b91506133e482613df1565b604082019050919050565b60006133fc601b83613b39565b915061340782613e40565b602082019050919050565b600061341f603283613b39565b915061342a82613e69565b604082019050919050565b6000613442602583613b39565b915061344d82613eb8565b604082019050919050565b6000613465601c83613b39565b915061347082613f07565b602082019050919050565b6000613488603383613b39565b915061349382613f30565b604082019050919050565b60006134ab602483613b39565b91506134b682613f7f565b604082019050919050565b60006134ce601983613b39565b91506134d982613fce565b602082019050919050565b60006134f1602983613b39565b91506134fc82613ff7565b604082019050919050565b6000613514602e83613b39565b915061351f82614046565b604082019050919050565b6000613537604083613b39565b915061354282614095565b604082019050919050565b600061355a602083613b39565b9150613565826140e4565b602082019050919050565b600061357d602a83613b39565b91506135888261410d565b604082019050919050565b60006135a0601883613b39565b91506135ab8261415c565b602082019050919050565b60006135c3602183613b39565b91506135ce82614185565b604082019050919050565b60006135e6602483613b39565b91506135f1826141d4565b604082019050919050565b6000613609603d83613b39565b915061361482614223565b604082019050919050565b600061362c601983613b39565b915061363782614272565b602082019050919050565b60a08201600082015161365860008501826136aa565b50602082015161366b602085018261328f565b50604082015161367e604085018261328f565b50606082015161369160608501826136aa565b5060808201516136a4608085018261330b565b50505050565b6136b381613c5b565b82525050565b6136c281613c5b565b82525050565b60006136d4828561339b565b91506136e0828461339b565b91508190509392505050565b6000602082019050613701600083018461329e565b92915050565b600060808201905061371c600083018761329e565b613729602083018661329e565b61373660408301856136b9565b613743606083018461331a565b95945050505050565b6000608082019050613761600083018761329e565b61376e602083018661329e565b61377b60408301856136b9565b818103606083015261378d8184613329565b905095945050505050565b600060208201905081810360008301526137b281846132ad565b905092915050565b60006020820190506137cf600083018461331a565b92915050565b600060208201905081810360008301526137ef8184613362565b905092915050565b60006020820190508181036000830152613810816133cc565b9050919050565b60006020820190508181036000830152613830816133ef565b9050919050565b6000602082019050818103600083015261385081613412565b9050919050565b6000602082019050818103600083015261387081613435565b9050919050565b6000602082019050818103600083015261389081613458565b9050919050565b600060208201905081810360008301526138b08161347b565b9050919050565b600060208201905081810360008301526138d08161349e565b9050919050565b600060208201905081810360008301526138f0816134c1565b9050919050565b60006020820190508181036000830152613910816134e4565b9050919050565b6000602082019050818103600083015261393081613507565b9050919050565b600060208201905081810360008301526139508161352a565b9050919050565b600060208201905081810360008301526139708161354d565b9050919050565b6000602082019050818103600083015261399081613570565b9050919050565b600060208201905081810360008301526139b081613593565b9050919050565b600060208201905081810360008301526139d0816135b6565b9050919050565b600060208201905081810360008301526139f0816135d9565b9050919050565b60006020820190508181036000830152613a10816135fc565b9050919050565b60006020820190508181036000830152613a308161361f565b9050919050565b6000602082019050613a4c60008301846136b9565b92915050565b6000613a5c613a6d565b9050613a688282613cd9565b919050565b6000604051905090565b600067ffffffffffffffff821115613a9257613a91613db1565b5b613a9b82613de0565b9050602081019050919050565b600067ffffffffffffffff821115613ac357613ac2613db1565b5b613acc82613de0565b9050602081019050919050565b6000819050602082019050919050565b600081519050919050565b600081519050919050565b600081519050919050565b6000602082019050919050565b600082825260208201905092915050565b600082825260208201905092915050565b600082825260208201905092915050565b600081905092915050565b6000613b6082613c5b565b9150613b6b83613c5b565b9250827fffffffffffffffffffffffffffffffffffffffffffffffffffffffffffffffff03821115613ba057613b9f613d53565b5b828201905092915050565b6000613bb682613c5b565b9150613bc183613c5b565b925082821015613bd457613bd3613d53565b5b828203905092915050565b6000613bea82613c3b565b9050919050565b6000613bfc82613c3b565b9050919050565b60008115159050919050565b60007fffffffff0000000000000000000000000000000000000000000000000000000082169050919050565b600073ffffffffffffffffffffffffffffffffffffffff82169050919050565b6000819050919050565b82818337600083830152505050565b60005b83811015613c92578082015181840152602081019050613c77565b83811115613ca1576000848401525b50505050565b60006002820490506001821680613cbf57607f821691505b60208210811415613cd357613cd2613d82565b5b50919050565b613ce282613de0565b810181811067ffffffffffffffff82111715613d0157613d00613db1565b5b80604052505050565b6000613d1582613c5b565b91507fffffffffffffffffffffffffffffffffffffffffffffffffffffffffffffffff821415613d4857613d47613d53565b5b600182019050919050565b7f4e487b7100000000000000000000000000000000000000000000000000000000600052601160045260246000fd5b7f4e487b7100000000000000000000000000000000000000000000000000000000600052602260045260246000fd5b7f4e487b7100000000000000000000000000000000000000000000000000000000600052604160045260246000fd5b6000601f19601f8301169050919050565b7f4552433732313a2063616c6c6572206973206e6f7420746f6b656e206f776e6560008201527f72206f7220617070726f76656400000000000000000000000000000000000000602082015250565b7f436f756e7465723a2064656372656d656e74206f766572666c6f770000000000600082015250565b7f4552433732313a207472616e7366657220746f206e6f6e20455243373231526560008201527f63656976657220696d706c656d656e7465720000000000000000000000000000602082015250565b7f4552433732313a207472616e736665722066726f6d20696e636f72726563742060008201527f6f776e6572000000000000000000000000000000000000000000000000000000602082015250565b7f4552433732313a20746f6b656e20616c7265616479206d696e74656400000000600082015250565b7f4f6e6c79206d61726b6574706c616365206f776e65722063616e20757064617460008201527f6520746865206c697374696e6720707269636500000000000000000000000000602082015250565b7f4552433732313a207472616e7366657220746f20746865207a65726f2061646460008201527f7265737300000000000000000000000000000000000000000000000000000000602082015250565b7f4552433732313a20617070726f766520746f2063616c6c657200000000000000600082015250565b7f4552433732313a2061646472657373207a65726f206973206e6f74206120766160008201527f6c6964206f776e65720000000000000000000000000000000000000000000000602082015250565b7f45524337323155524953746f726167653a2055524920736574206f66206e6f6e60008201527f6578697374656e7420746f6b656e000000000000000000000000000000000000602082015250565b7f506c65617365207375626d6974207468652061736b696e67207072696365206960008201527f6e206f7264657220746f20636f6d706c65746520746865207075726368617365602082015250565b7f4552433732313a206d696e7420746f20746865207a65726f2061646472657373600082015250565b7f4f6e6c79206974656d206f776e65722063616e20706572666f726d207468697360008201527f206f7065726174696f6e00000000000000000000000000000000000000000000602082015250565b7f4552433732313a20696e76616c696420746f6b656e2049440000000000000000600082015250565b7f4552433732313a20617070726f76616c20746f2063757272656e74206f776e6560008201527f7200000000000000000000000000000000000000000000000000000000000000602082015250565b7f5072696365206d75737420626520657175616c20746f206c697374696e67207060008201527f7269636500000000000000000000000000000000000000000000000000000000602082015250565b7f4552433732313a20617070726f76652063616c6c6572206973206e6f7420746f60008201527f6b656e206f776e6572206f7220617070726f76656420666f7220616c6c000000602082015250565b7f5072696365206d757374206265206174206c6561737420312000000000000000600082015250565b6142a481613bdf565b81146142af57600080fd5b50565b6142bb81613c03565b81146142c657600080fd5b50565b6142d281613c0f565b81146142dd57600080fd5b50565b6142e981613c5b565b81146142f457600080fd5b5056fea2646970667358221220eba458410962e7569a443091b5f3c64d7d78f2d1f68c1194b0f01bcde0f70be464736f6c63430008040033",
  "linkReferences": {},
  "deployedLinkReferences": {}
}